:100000000C94BB080C94E3080C94E3080C94E308EC
:100010000C94E3080C94E3080C94E3080C94E308B4
:100020000C94E3080C94E3080C9483110C94F211E3
:100030000C94E3080C94E3080C94E3080C94E30894
:100040000C94E3080C94E3080C94E3080C94E30884
:100050000C94E3080C94E3080C94E3080C94E31369
:100060000C94E3080C94E3080C94E3080C94E30864
:100070000C94E3080C94E3080C94E3080C94E30854
:100080000C9448140C94E3080C94E3080C94E308D3
:100090000C94E3080C94E3080C94E3080C94E30834
:1000A0000C94E3080C94E3080C94E308080800009F
:1000B0000000000000000808000000000000000030
:1000C0000808000000000000000008080000000010
:1000D0000000000008080000000000000000080800
:1000E0000000000000000000080800000000000000
:1000F00000000808394A6BCAFE7B5915080880427F
:10010000C54A7DDE9AA808089C52DED3FFDE9AA875
:1001100008089CD2DE537FDE9AA80808A89ADE7DE4
:100120004AC542800808A89ADEFFD3DE529C080820
:10013000A89ADE7F53DED29C080818420081810015
:10014000421808083C42BDE7FFA5423C08083C4273
:10015000BDE7FFA5423C08083C428D858181423CB9
:1001600008087F7F797F7F797F7F0808CF9FC99FAD
:10017000CF99CF9F08084CB04D7D7A4AB04C080803
:100180004CB04A7A7D4DB04C08087038A4BCBCA471
:1001900038700808070EA9AFAFA90E070808003F7E
:1001A00021ED212DE13F0808003FE12D21ED213F08
:1001B00008083C428D858181423C0808000000000F
:1001C000000000000808A89ADE7F53DE529C000061
:1001D0000000003E5B4F5B3E3E6B4F6B3E1C3E7C27
:1001E0003E1C183C7E3C181C577D571C1C5E7F5ED5
:1001F0001C00183C1800FFE7C3E7FF001824180094
:10020000FFE7DBE7FF30483A060E2629792926402A
:100210007F050507407F05253F5A3CE73C5A7F3E56
:100220001C1C08081C1C3E7F14227F22145F5F00E8
:100230005F5F06097F017F006689956A6060606084
:100240006094A2FFA29408047E040810207E20106F
:1002500008082A1C08081C2A08081E101010100C78
:100260001E0C1E0C30383E3830060E3E0E060000C6
:1002700000000000005F00000007000700147F146A
:100280007F14242A7F2A12231308646236495620D9
:10029000500008070300001C2241000041221C00FE
:1002A0002A1C7F1C2A08083E0808008070300008BD
:1002B00008080808000060600020100804023E5191
:1002C00049453E00427F4000724949494621414923
:1002D0004D331814127F1027454545393C4A49498A
:1002E0003141211109073649494936464949291EF4
:1002F00000001400000040340000000814224114E3
:1003000014141414004122140802015909063E4134
:100310005D594E7C1211127C7F494949363E41415C
:1003200041227F4141413E7F494949417F090909B5
:10033000013E414151737F0808087F00417F410021
:100340002040413F017F081422417F404040407FD0
:10035000021C027F7F0408107F3E4141413E7F091D
:100360000909063E4151215E7F091929462649495E
:10037000493203017F01033F4040403F1F2040209E
:100380001F3F4038403F631408146303047804039C
:100390006159494D43007F4141410204081020004A
:1003A0004141417F040201020440404040400003BB
:1003B00007080020545478407F2844443838444487
:1003C0004428384444287F385454541800087E097F
:1003D0000218A4A49C787F0804047800447D40009F
:1003E0002040403D007F1028440000417F40007CB9
:1003F000047804787C080404783844444438FC18B1
:1004000024241818242418FC7C0804040848545494
:10041000542404043F44243C4040207C1C204020C1
:100420001C3C4030403C44281028444C9090907C28
:100430004464544C4400083641000000770000003A
:100440004136080002010204023C2623263C1EA17C
:10045000A161123A4040207A3854545559215555DB
:10046000794121545478412155547840205455798C
:10047000400C1E527212395555555939545454591D
:1004800039555454580000457C410002457D4200D6
:1004900001457C40F0292429F0F0282528F07C54DF
:1004A0005545002054547C547C0A097F49324949FF
:1004B00049323248484832324A4848303A4141216C
:1004C0007A3A42402078009DA0A07D3944444439C6
:1004D0003D4040403D3C24FF2424487E4943662B58
:1004E0002FFC2F2BFF0929F620C0887E09032054FA
:1004F0005479410000447D413048484A32384040F8
:10050000227A007A0A0A727D0D19317D2629292F57
:1005100028262929292630484D402038080808086F
:1005200008080808382F10C8ACBA2F102834FA0071
:10053000007B000008142A142222142A14089500B3
:10054000220095AA005500AAAA55AA55AA000000A3
:10055000FF00101010FF00141414FF001010FF0013
:10056000FF1010F010F0141414FC001414F700FF26
:100570000000FF00FF1414F404FC141417101F10E3
:10058000101F101F1414141F00101010F000000092
:10059000001F101010101F10101010F0100000009D
:1005A000FF101010101010101010FF10000000FFAE
:1005B000140000FF00FF00001F10170000FC04F4EF
:1005C00014141710171414F404F40000FF00F714A7
:1005D000141414141414F700F7141414171410102E
:1005E0001F101F141414F4141010F010F000001F4A
:1005F000101F0000001F14000000FC140000F01089
:10060000F01010FF10FF141414FF141010101F002E
:10061000000000F010FFFFFFFFFFF0F0F0F0F0FF30
:10062000FFFF0000000000FFFF0F0F0F0F0F384407
:100630004438447C2A2A3E147E02020606027E02C8
:100640007E0263554941633844443C04407E201E89
:100650002006027E020299A5E7A5991C2A492A1CB8
:100660004C7201724C304A4D4D303048784830BCA5
:10067000625A463D3E494949007E0101017E2A2ACF
:100680002A2A2A44445F444440514A444040444A50
:1006900051400000FF0103E080FF000008086B6B81
:1006A000083612362436060F090F06000018180007
:1006B00000001010003040FF0101001F01011E006A
:1006C000191D1712003C3C3C3C00000000008D143A
:1006D000A1C881CFD9F102AF47616D65204F766522
:1006E000720004040B0D0B0D0B0D0B0D57001600C3
:1006F0005700160057001600008050726573732073
:100700004120746F20626567696E00900046009119
:100710000046009200220001007700900045009101
:1007200000450092002E00010077009000430091E8
:10073000004300920022000100770092002E00008A
:1007400000BB0090004100910041000000BB0092FE
:1007500000220090004500910045000100770092C2
:10076000002E0090004300910043000100770092AA
:1007700000220090004100910041000100770092AA
:10078000002E0090003F0091003F00010077009292
:100790000022009000430091004300010077009286
:1007A000002E00900041009100410001007700926E
:1007B00000220090003F0091003F000000BB00902D
:1007C000003E0091003E000000BB0092002E0001A0
:1007D000007700900041009100410092002200014A
:1007E00000770092002E00010077009200220001A5
:1007F00000770090003E0091003E0092002E000025
:1008000000BB0090003C0091003C000000BB009247
:10081000001F0090003A0091003A0001007700921A
:10082000002B0090003C0091003C000100770092FA
:10083000001F0090003E0091003E000100770092F2
:10084000002B0090003F0091003F000100770092D4
:10085000001F0090003C0091003C000100770092D6
:10086000002B0090003E0091003E000000BB009075
:10087000003F0091003F000000BB0092001F0001FC
:10088000007700900041009100410092002B000190
:10089000007700900041009100410092001F00018C
:1008A000007700900043009100430092002B00016C
:1008B000007700900045009100450092001F000065
:1008C00000BB0090004300910043000000BB009279
:1008D000002B000100770090004100910041009240
:1008E000001F00010077009000410091004100923C
:1008F000002B00010077009000430091004300921C
:10090000001F000100770090004500910045009213
:10091000002B0001007700900046009100460092F5
:1009200000220001007700900045009100450092F0
:10093000002E0001007700900043009100430092D8
:100940000022000100770092002E000000BB009002
:10095000004100910041000000BB00920022009085
:10096000004500910045000100770092002E0090A4
:1009700000430091004300010077009200220090A4
:10098000004100910041000000BB0090003F009139
:10099000003F000000BB0092002E00010077009095
:1009A0000043009100430092002200010077009074
:1009B0000041009100410092002E0001007700905C
:1009C000003F0091003F00920022000000BB009019
:1009D000003E0091003E000000BB0092002E00018E
:1009E0000077009000410091004100920022000138
:1009F00000770092002E0001007700920022000193
:100A000000770090003E0091003E0092002E000012
:100A100000BB0090003C0091003C000000BB009235
:100A2000001F0090003A0091003A00010077009208
:100A3000002B0090003C0091003C000100770092E8
:100A4000001F0090003E0091003E000100770092E0
:100A5000002B0090003F0091003F000100770092C2
:100A6000001F0090003C0091003C000100770092C4
:100A7000002B0090003E0091003E000000BB009063
:100A8000003F0091003F000000BB0092001F0001EA
:100A9000007700900041009100410092002B00017E
:100AA000007700900041009100410092001F00017A
:100AB000007700900043009100430092002B00015A
:100AC000007700900045009100450092001F000053
:100AD00000BB0090004100910041000000BB00926B
:100AE000002B000100770090004600910046009224
:100AF0000022000100770090004100910041009227
:100B0000001D000100770090004300910043009217
:100B1000001F000100770090004400910044009203
:100B200000200001007700900045009100450092F0
:100B30000021000100770092002D00010077009253
:100B40000021000100770092002D00010077009243
:100B500000210001007700900041009100410092C7
:100B6000001D0001007700900043009100430092B7
:100B7000001F0001007700900045009100450092A1
:100B8000002100010077009000460091004600928D
:100B90000022000100770092002E000100770092F1
:100BA0000022000100770092002E000100770092E1
:100BB0000022000100770090004100910041009266
:100BC000001D000100770090004300910043009257
:100BD000001F000100770090004500910045009241
:100BE000002000010077009000480091004800922A
:100BF0000021000100770092002D00010077009293
:100C00000021000100770092002D00010077009282
:100C10000021000100770090004100910041009206
:100C2000001D0001007700900043009100430092F6
:100C3000001F0001007700900045009100450092E0
:100C40000021000100770090004A0091004A0092C4
:100C50000022000100770092002E00010077009230
:100C60000022000100770092002E00010077009220
:100C7000002200010077009000460091004600929B
:100C80000022000100770090004800910048009287
:100C90000024000100770090004A0091004A009271
:100CA0000026000100770090004B0091004B00925D
:100CB0000027000100770090004B0091004B00924C
:100CC00000330001007700920027000100770090B8
:100CD000004B0091004B009200330001007700921E
:100CE0000027000100770090004A0091004A00921E
:100CF0000033000100770090004800910048009206
:100D00000027000100770092003300010077009077
:100D1000004A0091004A00920026000100770092EC
:100D20000032000100770092002600010077009257
:100D30000032000100770092002600010077009247
:100D40000032000100770090004A0091004A0092B2
:100D50000026000100770092003200010077009029
:100D600000480091004800920024000100770092A2
:100D7000003000010077009200240001007700900D
:100D80000043009100430092003000010077009280
:100D9000001F000100770090004300910043009283
:100DA000002B000100770090004A0091004A009259
:100DB000001F000100770092002B000100770090D7
:100DC0000048009100480092002400010077009242
:100DD00000300001007700920024000100770092AB
:100DE000003000010077009200240001007700909D
:100DF0000041009100410092001D00010077009029
:100E00000043009100430092001F00010077009012
:100E100000440091004400920020000100770090FF
:100E200000450091004500920021000100770092EA
:100E3000002D000100770092002100010077009250
:100E4000002D000100770092002100010077009042
:100E50000041009100410092001D000100770090C8
:100E60000043009100430092001F000100770090B2
:100E7000004500910045009200210001007700909C
:100E80000046009100460092002200010077009287
:100E9000002E0001007700920022000100770092EE
:100EA000002E0001007700920022000100770090E0
:100EB0000041009100410092001D00010077009068
:100EC0000043009100430092001F00010077009052
:100ED000004500910045009200200001007700903D
:100EE0000048009100480092002100010077009224
:100EF000002D000100770092002100010077009290
:100F0000002D000100770092002100010077009081
:100F10000041009100410092001D00010077009007
:100F20000043009100430092001F000100770090F1
:100F300000450091004500920021000100770090DB
:100F4000004A0091004A00920022000100770092BE
:100F5000002E00010077009200220001007700922D
:100F6000002E00010077009200220001007700901F
:100F70000046009100460092002200010077009098
:100F80000048009100480092002400010077009082
:100F9000004A0091004A009200260001007700906C
:100FA000004B0091004B0092002700010077009059
:100FB000004B0091004B009200330001007700923B
:100FC0000027000100770090004B0091004B009239
:100FD00000330001007700920027000100770090A5
:100FE000004A0091004A009200330001007700900F
:100FF000004800910048009200270001007700920D
:101000000033000100770090004A0091004A0092EE
:101010000026000100770092003200010077009264
:101020000026000100770092003200010077009254
:101030000026000100770092003200010077009046
:10104000004A0091004A00920026000100770092B9
:1010500000320001007700900048009100480092A3
:101060000024000100770092003000010077009218
:10107000002400010077009000410091004100929F
:101080000030000100770092001D00010077009001
:10109000004A0091004A009200240001007700906D
:1010A0000041009100410092001D00010077009076
:1010B000004A0091004A009200240001007700904D
:1010C0000046009100460092002200070053009065
:1010D0000041009100410092001D00010077009046
:1010E0000043009100430092001F00010077009030
:1010F000004500910045009200210001007700802A
:101100000081008200F000080B00020202010009C9
:101110000400000102020000052400100105240162
:1011200001010424020605240600010705810310BD
:10113000004009040100020A000000070502024005
:1011400000000705830240000004030904120100A7
:1011500002EF0201404123368000010102030141F8
:10116000726475696E6F204C4C43004142503131BE
:1011700030360000ED1411241FBECFEFDAE0DEBFE1
:10118000CDBF13E0A0E0B1E0E0E2F7E302C00590DC
:101190000D92AA36B107D9F728E0AAE6B3E001C05C
:1011A0001D92A431B207E1F718E0CBEBD8E004C000
:1011B0002197FE010E94881BCA3BD107C9F70E94F4
:1011C0002E150C948E1B0C94000080916A030895D8
:1011D0006F927F928F929F92AF92BF92CF92DF9247
:1011E000EF92FF920F931F93CF93DF936C01D8017F
:1011F000FA018E2D90E0F590E590211511F49115EE
:10120000B1F047E04E0D479546954695833009F479
:10121000440F4F9DA001249FE00DF11D259FF00D6F
:10122000109629F0949FA00DB11D959FB00D11242B
:101230008F3F21F4109682E009F081E0CF2DD0E0BD
:10124000A6014C0F5D1F141615060CF06FC090E838
:10125000C916D1040CF06AC09B012E0D311D121667
:1012600013060CF063C0603471050CF05FC030975A
:1012700009F45CC0362F37708B0177FF02C0095F1D
:101280001F4F93E0159507959A95E1F7202F77FF6B
:1012900004C0332311F02FEF200F002711270C1962
:1012A0001D09D7FC02C010E000E090E89C1940380E
:1012B00051050CF49F2D901B422F022E000C550B54
:1012C000A42EA0942F3F0CF0A12CBB24B3946E2D20
:1012D000677009F4B12CE694E694E694BE0C4B0DCD
:1012E000511D493051051CF048E0B42EB21ABA180D
:1012F0002A0D40E82403B00111246C0D7D1D600F00
:10130000711FFA9C000D111D1124AF01400F511FD8
:10131000C32E032E000CDD08833009F40EC1A8F49F
:10132000813009F4C1C0823009F46FC0DF91CF91E0
:101330001F910F91FF90EF90DF90CF90BF90AF90F3
:101340009F908F907F906F9008958A3F89F1B20EA1
:101350008B3F61F72B1551F3DB01A356BC4F10E017
:1013600000E0091708F09AC0FA01E00FF11FE491BC
:10137000F0E00C2C02C0EE0FFF1F0A94E2F727FDED
:1013800005C08C91FE2EF0948F218C93332361F055
:10139000273054F47D0180E8E80EF11CAF2EA094B4
:1013A000F70180818A2180830F5F1F4F1196D9CF6B
:1013B000B20E2B1509F4BACFDB01A356BC4F10E0D7
:1013C00000E0091708F064C0FA01E00FF11FE49192
:1013D000F0E04F010C2C02C0880C991C0A94E2F733
:1013E00027FD03C08C9188298C93332351F027303B
:1013F00044F47D0180E8E80EF11CF7018081892921
:1014000080830F5F1F4F1196DCCFAFEFB0E0032E4C
:1014100002C0AA0FBB1F0A94E2F7A095B0959B2EBD
:101420008B2C820E281509F481CF8B0103561C4F9B
:10143000F12CE12CE91630F5FA01EE0DFF1DE491D7
:10144000F0E03F010C2C02C0660C771C0A94E2F716
:1014500027FD05C0F80180818A23862980833323F4
:1014600059F027304CF45801F0E8AF0EB11CF501EB
:101470008081892187298083FFEFEF1AFF0A0F5FA0
:101480001F4FD8CF2F5F4C0F5D1F60587F4FCACFC3
:101490002F5F4C0F5D1F60587F4F8BCF2F5F4C0F1E
:1014A0005D1F60587F4F56CFA00FB11F8B2D820F4D
:1014B000281709F43BCF8B0103561C4FF12CE12C6C
:1014C000E91698F5FD01EE0DFF1DA490B12C0C2C32
:1014D00002C0AA0CBB1C0A94E2F7A094B094FA01D3
:1014E000EE0DFF1D8490912C0C2C02C0880C991CD1
:1014F0000A94E2F727FD08C0F8017080E72DEA2181
:101500007E2E7828F8017082332349F027303CF48E
:10151000F801E058FF4FA080BA20B928B082FFEF51
:10152000EF1AFF0A0F5F1F4FCBCF2F5F4C0F5D1FCE
:10153000AC0FBD1F60587F4FBBCFE92EF12CFA01D5
:10154000E00FF11FDB01A356BC4F00E810E00E19BD
:101550001F09CE19DF09BE01660F771F41E050E079
:101560007A01032E01C0EE0C0A94EAF7592F4B2D95
:10157000892E932ECF93DF93ED01EF96EF9622966F
:10158000A590C590992059F0AE9C5001CE9C600169
:1015900027302CF4F880D094FD20FB28F9922223E8
:1015A0003AF0FC90C094FC20FA28FD920C94D90AE1
:1015B00011965A9529F74A9551F0582D23951124E3
:1015C000E60FF11DA00FB11DC00FD11DD9CFDF91C6
:1015D000CF911124ABCEEDE9F3E080E030EB20E1D8
:1015E00046E05C983EBD4A95F1F72EBD20E8239574
:1015F00007C0449140815C9A4EBD8111412D4193B9
:1016000044912A95B1F73395383B49F70DB40895C5
:1016100090E0EDE9F3E091119FEF8FEF91939193BB
:10162000919391938150D0F70895FC0180919C0390
:10163000882311F13FB7F89482E08093E90020916C
:10164000F200822F90E01816190614F481E090E061
:10165000882339F0289844E640939B034091F10099
:101660004083222339F02091F200211103C02BE6A0
:101670002093E8003FBF08958FEF9FEF08952FB7A5
:10168000F89483E08093E9009091E800892F8072BC
:1016900095FF04C09091F20080E4891B2FBF08954C
:1016A0008091930381110DC082E080938F0384E0C9
:1016B00080939003109292031092910381E08093A3
:1016C00093038FE893E00895CF93DF931F92CDB7F4
:1016D000DEB76983DC01ED91FC910280F381E02D9E
:1016E00041E050E0BE016F5F7F4F09950F90DF91A1
:1016F000CF91089583E08093E9008091F2008823E0
:1017000019F08AE38093E80008950E943F0B90E06F
:101710000895CF93DF931F92CDB7DEB7FC01848588
:10172000958597FD08C02FEF3FEF358724870F90F1
:10173000DF91CF910895CE0101960E94150B01977C
:1017400019F4898190E0F3CF8FEF9FEFF0CF0F93E3
:101750001F93CF93DF931F92CDB7DEB78C01FC01AF
:101760008485958597FF0BC0CE0101960E94150BCD
:10177000019771F4898190E0F80195878487F801D9
:10178000848595850F90DF91CF911F910F910895DA
:101790008FEF9FEFF1CFFC018485958597FD0BC0FE
:1017A0009FB7F89482E08093E9008091F2009FBF98
:1017B00090E0019608959FB7F89482E08093E90045
:1017C0008091F2009FBF90E008954091890350916D
:1017D0008A03209187033091880342175307B4F49A
:1017E0009091E8009570E1F39091E80092FD19C0A6
:1017F0008093F1008091890390918A0301968F7301
:101800009927892B19F48EEF8093E8008091890342
:1018100090918A03019690938A038093890381E0D3
:10182000089580E00895EF92FF920F931F93CF9356
:10183000DF93F82E192FE62E042F81E0860F880FF4
:101840000E94E50B83E00E94E50BCF2DD12FEC0E1B
:10185000FD2EF11CCE15DF05B9F007FF13C0FE0108
:1018600084910E94E50B182F80E00E94E50B8123F4
:1018700021968111EFCFDF91CF911F910F91FF90B2
:10188000EF9008958881EDCF81E0F5CFDF92EF9260
:10189000FF920F931F93CF93DF93D82E8A01EB0112
:1018A0007B01E40EF51ECE15DF0559F0D7FE12C000
:1018B000FE0184910E94E50B21968111F4CF0FEF78
:1018C0001FEFC801DF91CF911F910F91FF90EF9013
:1018D000DF9008958881EECF0F931F93CF93DF930E
:1018E0001F92CDB7DEB782E0898342E450E067E023
:1018F00071E180E80E94460C0E94500BDC011296B8
:101900000D911C910115110589F0D801ED91FC9103
:101910000280F381E02DBE016F5F7F4FC801099502
:1019200097FD04C0F80100851185ECCF89810F90E7
:10193000DF91CF911F910F910895615030F0209168
:10194000F100FC0120830196F8CF289884E680936B
:101950009B030895AF92BF92CF92DF92EF92FF92D6
:101960000F931F93CF93DF936C017B018B01040FC7
:10197000151FEB015E01AE18BF08C017D10759F063
:101980006991D601ED91FC910190F081E02DC601A5
:101990000995892B79F7C501DF91CF911F910F919F
:1019A000FF90EF90DF90CF90BF90AF900895FC0133
:1019B0000E946E0D319728F068517C4F8F4F9F4FDA
:1019C000F9CFAB01FC010E946E0D641775078E07FD
:1019D0009F07C8F308958F929F92AF92BF92CF92C4
:1019E000DF92EF92FF920F931F93CF93DF936C01DF
:1019F0007B018A0180916C02882309F45AC080918E
:101A00009C03882309F455C080918E0380FF05C094
:101A10008091E00082608093E000E801B12C8AEFC1
:101A2000A82E93E0892E2AE3922E209711F4BB2052
:101A3000C9F10E943F0B811108C0AA94AA20C9F1E4
:101A400081E090E00E94D70CF0CF8C171D0611F0BA
:101A50000CF08C2F9FB7F8948092E9002091E80059
:101A600025FD02C09FBFE1CF282F30E0C21BD30B62
:101A7000F701815020F041914093F100FACFE20E3E
:101A8000F31EBB2021F09092E800B12CEBCF8091A7
:101A9000E80085FDE7CF9092E800BB24B39420973F
:101AA00009F3F3CF5D9884E680938D031016110639
:101AB0003CF081E090E0F6019383828310E000E047
:101AC000C801DF91CF911F910F91FF90EF90DF90B0
:101AD000CF90BF90AF909F908F900895ACE7B3E008
:101AE0002FB7F8947D918D919C9166B52FBFA89BDF
:101AF00005C06F3F18F47F5F8F4F9F4F22E0660F46
:101B0000771F881F991F2A95D1F708952091710397
:101B1000E0916F03F0917003CF01029690937003F0
:101B200080936F03222319F0859194910895808109
:101B300091810895CF92DF92EF92FF92CF93DF933E
:101B40000E94860D811520E8920791F48091710022
:101B50008D7F809371001092910046984798109263
:101B60008503DF91CF91FF90EF90DF90CF900895A4
:101B700021E020938503813020E8920751F4809181
:101B80006D0390916E039093700380936F030E9496
:101B9000860D97FD05C020916C03222309F454C0E3
:101BA00020916B03211150C021E020937203EC01BE
:101BB000DF77209709F04BC081E08093730346984C
:101BC0003FE9C32E3FE0D32EE12CF12CCAEFD0E049
:101BD000E091FB07F091FC070995811103C081E0BA
:101BE0008093730380917203882329F0809173039B
:101BF000882309F43FC047980E94860D0097F1F1B1
:101C00009C01DE010E94651BDC01CB0129E0B5953A
:101C1000A795979587952A95D1F7109290002AE07D
:101C200020939100D0929900C09298008093740301
:101C300090937503A0937603B0937703809171001E
:101C40008260809371008DCF10927203B0CF9E019D
:101C500050E040E060E472E48FE090E00E94111BED
:101C600069017A0181E0C81AD108E108F1081092EF
:101C70007303AECF4699BFCF479ABECF8FEF9FEF8A
:101C8000DC01CBCF9C01E1E7F0E090819D7F908368
:101C900081E0809371033093700320936F0330933E
:101CA0006E0320936D030C949A0DEF920F931F9384
:101CB0004115510531F032E0E32E10E000E00E94C2
:101CC000E8081F910F91EF9008950C94D70C0E9493
:101CD0004014089510926A033E983F9808953E9AE2
:101CE0003F9A81E080936A0308952F923F924F922A
:101CF0005F926F927F928F929F92AF92BF92CF929C
:101D0000DF92EF92FF920F931F93CF93DF9300D058
:101D100000D01F92CDB7DEB79C838B836A3059F514
:101D2000DC0155968C91B8E08B9F90011124EB81DA
:101D3000FC8181899289820F931F928B818B108AFB
:101D4000178681E090E00F900F900F900F900F900A
:101D5000DF91CF911F910F91FF90EF90DF90CF9087
:101D6000BF90AF909F908F907F906F905F904F90BB
:101D70003F902F9008956D3021F3AB81BC811F9669
:101D80008D919C915097803891050CF087C05196A9
:101D9000CD90DC90B0E4CB16D1040CF07FC0EB8189
:101DA000FC819588E5E09C019E9E200D311D11244B
:101DB000121613060CF072C0E92CF12C9701B3E057
:101DC000220F331FBA95E1F72C0D3D1D1216130695
:101DD0000CF064C0AB81BC8154965C9054975396D0
:101DE0004C906E9FF0011124E253FE4F70E024915D
:101DF000753009F420E05601A8E06A2E222E312C1D
:101E0000642D20FF652D611103C0541409F437C0FF
:101E1000AC0161706A834983242F281B291578F54A
:101E200010E000E0091540F54038510510F5980123
:101E30002A0D3B1D20343105E0F460E1762E8980C7
:101E400061E021FD64E020FD660F22FD6295287FA0
:101E5000729ED0011124A80D6D83A356BC4F2C9106
:101E60003A81862E822A311103C08D80809482228D
:101E70008C920F5F1F4FD6CF4F5F5F4FCCCF91013A
:101E8000359527956A94AE0CBF1C6110B7CF7F5F64
:101E900031968E0D9F1D763009F0A9CFAB81BC81A4
:101EA00055962C915597422F50E01F968D919C91FD
:101EB000B6E02B9F800D911D1124EB81FC81908B4E
:101EC00087872689222309F43CCF6AEF64039001B7
:101ED000659F300D112420583F4F281739070CF00B
:101EE00030CFCF010190F081E02D0190F081E02D05
:101EF0006AE0099526CF0F931F93CF93DF938C0150
:101F0000D0E0C0E0F801EC0FFD1F6491662341F0C2
:101F10008DEF97E00E94750E892B11F02196F2CF7C
:101F2000CE01DF91CF911F910F91089508950895EB
:101F300090E080E008954F925F926F927F928F922F
:101F40009F92AF92BF92CF92DF92EF92FF920F9348
:101F50001F93CF93DF93CAE2D1E09AE0492E22E0AB
:101F6000522E0CE411E03DE4E32E31E0F32E8B81A0
:101F70008823D1F0EA81F0E0EE0FFF1FEF56FD4F0E
:101F8000408151815D834C83FA013196E4916981EE
:101F9000062E000C770B6E1B7109888120E0082E3D
:101FA000000C990B0E94550EA0E0B1E0B12CA12CC1
:101FB00013968C911397882309F47EC08881082E8C
:101FC000000C990B69812C813D8169014FEFC41A86
:101FD000D40AF6015491F9017491F601D4906C90F1
:101FE000062C000C770811964C91119718968D903D
:101FF0009C90199794012F5F3F4FF901C490F40111
:102000008490F9012491FC01E70FF11D6E167F0603
:102010000CF052C0680C711C861597050CF04CC072
:10202000062E000C770BFB01E51BF109042E000CBA
:10203000550B4C1951094F018D0C911C4815590530
:10204000DCF5240F352F311DE217F307ACF54A9C60
:10205000F0014B9CF00D1124E050FF4F13825A8287
:102060002091540230915502265F3F4F3093550224
:10207000209354021D830C83F7012491621B710984
:1020800020E04CE451E00E94550E269681E0C435D4
:10209000D80709F06CCFDF91CF911F910F91FF907E
:1020A000EF90DF90CF90BF90AF909F908F907F90F8
:1020B0006F905F904F900895FFEFAF1ABF0A1A9686
:1020C00044E0A416B10409F073CFDFCF90918403EC
:1020D000EAE2F1E08381882381F02281808121304E
:1020E000B9F098F02230B1F0808187FD03C0818182
:1020F00087FF03C0138291119150369681E0E43539
:10210000F80741F79093840308958F5F8083ECCFA5
:102110008150FCCF818181508183E6CFEF920F9374
:102120001F938091580290E0880F991FFC01EF5790
:10213000FD4F4081518150935E0240935D028F5864
:102140009D4FFC01008111811093600200935F029A
:10215000FA013196E4914115510561F06091570201
:102160006E1B770B80915602EE24E39420E090E002
:102170000E94E8081F910F91EF90089581E08093ED
:1021800056028CE3809357021092590210925B0220
:10219000109258021092840310922D011092330174
:1021A0001092390110923F011092450110924B019B
:1021B00010925101E0E0F1E088E291E030E82CE09B
:1021C0003083218313821482168215821782128231
:1021D0003A968E179F07A1F70895E82F6C3049F4BF
:1021E000E695E695F0E0EC52FE4F8081813011F5E6
:1021F00008956C3149F4E695E695F0E0EC52FE4F17
:1022000080A18130B9F408956C3249F4E695E695E1
:10221000F0E0EC5EFD4F8081813061F408956C3315
:1022200049F4E695E695F0E0EC5CFD4F8081813065
:1022300009F4089580E00895809159028823F1F00F
:1022400080915A02E82FF0E0E556FD4F6091570269
:102250009081691B609357028F5F80935A02893087
:1022600061F51092590210925A02809156020E9412
:10227000ED10811103C081E080935B0280915B02CD
:102280008823F1F080915C02E82FF0E0EC55FD4FDF
:10229000609157029081690F609357028F5F80931E
:1022A0005C02893039F5809156020E94ED1081114F
:1022B00010925B0210925C02089510925B02DECFD6
:1022C000809104089091050863E070E00E94741BFF
:1022D000892B81F480915802823069F018F48130A2
:1022E00031F00895843049F0853049F0089582E056
:1022F00080935802089581E0FBCF85E0F9CF84E018
:10230000F7CF0C94091B1F920F920FB60F92112456
:102310008F939F938091E1009091E100937F909340
:10232000E10083FF0FC01092E90091E09093EB0071
:102330001092EC0092E39093ED0010929C0398E0D1
:102340009093F00082FF22C093E09093E900909177
:10235000F200992319F09AE39093E80090918D038D
:10236000992341F090918D03915090938D03911199
:1023700001C05D9A90919B03992341F090919B033A
:10238000915090939B03911101C0289A84FF18C02B
:102390008091E2008E7E81608093E2008091E10076
:1023A0008F7E8093E10080918E038E7E806180938A
:1023B0008E039F918F910F900FBE0F901F901895D5
:1023C00080FFF7CF8091E2008E7E80618093E200F3
:1023D0008091E1008E7E8093E10080918E038E7E5D
:1023E0008160E5CF1F920F920FB60F921124CF920A
:1023F000DF92EF92FF920F931F932F933F934F9390
:102400005F936F937F938F939F93AF93BF93EF935C
:10241000FF93CF93DF93CDB7DEB76C97DEBFCDBF11
:102420001092E9008091E80083FF25C068E0CE01AA
:1024300045960E949D0C82EF8093E8008D8987FF6E
:1024400039C09091E80090FFFCCF982F907609F06A
:1024500034C19E894F89588D2F89F88C911131C0D4
:10246000803861F580918C038093F1001092F10027
:102470008EEF8093E8006C960FB6F894DEBF0FBE27
:10248000CDBFDF91CF91FF91EF91BF91AF919F9120
:102490008F917F916F915F914F913F912F911F91FC
:1024A0000F91FF90EF90DF90CF900F900FBE0F90A5
:1024B0001F9018959EEF9093E800C7CF1092F100FF
:1024C000D5CF913059F48111D3CF4130510581F6E8
:1024D00080918C038D7F80938C03CACF933049F415
:1024E0008111C6CF4130510519F680918C0382606D
:1024F000F2CF953041F48091E80080FFFCCF206856
:102500002093E300B5CF963009F0A9C00B8D1C8D48
:1025100022E01092E90010928A0310928903F212CD
:102520002EC010928803109287030E946C0C1F82A9
:1025300099E09983FA8291E09E8390EA98879AEFD6
:1025400099872091890330918A03275F3F4F3C830D
:102550002B838D831092E90010928A0310928903D5
:10256000109388030093870349E050E0BE016F5F3A
:102570007F4F80E00E94460C0E946C0C79CF109334
:102580008803009387030E94500BDC0112960D9183
:102590001C910115110509F410C1D801ED91FC91B0
:1025A0000480F581E02DBE016B5E7F4FC801099567
:1025B000009709F0FDC0F80100851185EACFF3E02E
:1025C000FF120EC08F89882309F440C0823061F465
:1025D00040E867E08BE691E10E94130C811148CF3F
:1025E00081E28093EB0047CF813029F440E86BE033
:1025F0008FE591E1F1CF833099F70E94500BDC0118
:102600001296ED90FC908E010F5F1F4F6801E11450
:10261000F10479F0D701ED91FC910680F781E02D6E
:10262000B801C7010995080F111DF701E084F18475
:10263000EECFD8011C92F60101900020E9F7319706
:10264000BF016C197D0940E0C601C6CF69E471E1A4
:10265000FB01449150E080E80E94460C09CF97307E
:1026600009F4BECF983021F481E08093F10000CFCF
:10267000993009F0FDCE837009F0B2CFEEE3F3E0BC
:1026800081E031E096E32191222371F08093E9000B
:102690003093EB00DF0111972C912093EC00909385
:1026A000ED008F5F873079F78EE78093EA00109214
:1026B000EA008F8980939C03DBCE8B8D9C8D1092DA
:1026C000E90010928A031092890390938803809303
:1026D0008703898D811151C08E899D89913A49F472
:1026E000813209F07DCF47E050E065E672E080E09E
:1026F000B3CF913209F074CF833269F48F89988D0A
:10270000B0E0A0E08093610290936202A093630224
:10271000B0936402ADCE803269F48091E80082FF0C
:10272000FCCF67E085E692E00E949D0C8BEF8093E2
:10273000E8009ECE823209F09BCE8F8980936C0296
:102740008091650290916602A0916702B091680243
:10275000803B9440A105B10569F480916C0280FD35
:1027600009C088E780938B03809164008F7D8093FC
:1027700064007ECE10928B037BCE0E94500BDC0156
:1027800012960D911C910115110509F429CFD8015C
:10279000ED91FC910190F081E02DBE016B5E7F4FC9
:1027A000C8010995811164CEF80100851185EBCF30
:1027B000181619060CF45CCE13CFF1E0FF12FFCE11
:1027C0006DE471E145CF0F930FB70F931F92112462
:1027D0008F939F93EF93FF93E0E8F3E080917B0367
:1027E00091E08D5F8D3710F08D57939580937B032B
:1027F0008081890F80839181911D91830281011DC8
:1028000002838381811D838309270F700927029525
:1028100000937A0335D0811100937803803989F4CD
:1028200000917903901B963070F087E78093000841
:102830008093010888E198E08093600090936000A5
:10284000FFCF9093790380918B03815018F0809390
:102850008B0359F3ECE7F3E080819181019680834B
:10286000918382819381811D911D82839383FF9146
:10287000EF919F918F911F900F910FBF0F9118951E
:102880008FB18095807F669B88601C9B84600895D3
:102890001F920F920FB60F9211242F933F934F93D5
:1028A0005F936F937F938F939F93AF93BF93EF93B8
:1028B000FF938091740390917503A0917603B0917A
:1028C0007703892B8A2B8B2B09F440C080917303EB
:1028D00081110BC088B190E4892788B98091720377
:1028E000882319F088B1805888B980917403909139
:1028F0007503A0917603B0917703181619061A068E
:102900001B069CF48091740390917503A09176034B
:10291000B09177030197A109B10980937403909353
:102920007503A0937603B0937703FF91EF91BF9166
:10293000AF919F918F917F916F915F914F913F9157
:102940002F910F900FBE0F901F9018950E949A0D17
:10295000ECCF0F931F93CF93DF938C0181E090E036
:102960000E94811180FF31C08AE090E00E948111B5
:102970009FEF980F9E3F48F522E330E0D801509634
:102980003C932E931F9728E330E052963C932E936E
:102990005197CBE0D0E0D801ED91FC910190F0810E
:1029A000E02D682FC8010995CE010E948111219662
:1029B000C131D10581F70E94EB0A88EE93E0DF91E7
:1029C000CF911F910F910C94650EDF91CF911F91C4
:1029D0000F91089504970C94A914EDE9F7E0138280
:1029E000128288EE93E0A0E0B0E084839583A68312
:1029F000B78388E493E0918380838FEF9FEF95877F
:102A00008487EDEFF7E0138212821186128680E14F
:102A100083871086178215868AE593E091838083E9
:102A200088E693E095838483108A1786128A118A38
:102A300081E0838B148A858B168A85EE98E09093CB
:102A4000FC078093FB0780E090E89093FA0780935F
:102A5000F90746983E9A47983F9A0895CDB7DEB752
:102A6000A197DEBFCDBF789483E084BD83E085BDB0
:102A700081E080936E00E1E8F0E083E08083E0E8AD
:102A800081E08083E1E983E08083E0E981E0808385
:102A9000E1EC87E08083E3EC81E08083E0EC82E09E
:102AA0008083E2EC81E08083EAE787E080838068CE
:102AB000808310929C0310928C0310928E0380915D
:102AC000D70081608093D70080EA8093D80089B5D1
:102AD000806189BD89B5826089BD09B400FEFDCFE2
:102AE00081E090E00E94D70C8091D8008F7C8061BB
:102AF0008093D8008091E000807F8093E0008091F7
:102B0000E1008E7E8093E1008DE08093E200559A93
:102B1000209A81EC80937C0081EF85B987EE84B99F
:102B200084E38BB984EF8AB9769A6E9880EF81BB83
:102B300010BA80E58CBD81E08DBD85E090E00E94FB
:102B4000650E5F9902C05F9AF8CF5C98EEECF6E0F4
:102B50009AE085918EBD00000DB407FEFDCF8EB5C5
:102B60009A95B9F75C9A81E88093640081E080933C
:102B700065008DE080930808809164008E7F8093CB
:102B8000640080917A00806480937A0080917A005A
:102B900086FDFCCF00917800109179000E946E0DA7
:102BA000AB01BC01C801B0E0A0E0DC019927882797
:102BB0008C019D01040F151F261F371FC901B80185
:102BC00020916400216020936400611571058105E6
:102BD000910511F00E94001B82E090E00E9481119B
:102BE000882329F10E946F0EB8E22B2EB1E03B2E14
:102BF00016E0812E912C06E0A02EF7E07F2EA4E0B7
:102C00006A2E9091800380910908192F181B812F3B
:102C100020910A08222371F010930B0810920A08E1
:102C200080E090E0892B69F30E940000E6CF0E94CB
:102C30006A0EDACF20910808121740F48F5F8217CE
:102C400078F781E083BF889513BEEACF11E0109337
:102C50000A0890930908809104089091050801964C
:102C600090930508809304088091060880930708D4
:102C70000E94670E8093060880918603813009F4D4
:102C80006EC098F1823061F60E94080B10920F0816
:102C900010920E0810920D0810920C080E948E10CF
:102CA00088E290E090930D0880930C088CE090E00F
:102CB00090930F0880930E0888ED96E00E947B0F9A
:102CC0000E946A0E0E941C110E94EB0A8091070864
:102CD00083FDA6CF8091060883FFA2CF0E94BE107D
:102CE00010938603109358029BCF0E94080B1092FA
:102CF0000F0810920E0810920D0810920C080E94F6
:102D0000BE100E946F0E80918503811104C08BE07C
:102D100097E00E94420E21E130E030930D082093AD
:102D20000C088CE090E090930F0880930E088AEFD7
:102D300096E00E947B0F0E948E100E94EB0A0E9478
:102D4000670E83FF6DCF8CEE96E00E94420E0E94CC
:102D50006A0E81E0809386038093580261CF0E94BF
:102D6000080B10920F0810920E0810920D08109286
:102D70000C082091840330E050E040E019A28E015D
:102D80000F5D1F4FCA01B9012AE030E040E050E07A
:102D90000E94431B605DD8016E938D0121153105A2
:102DA0004105510579F7109769F0FD010190002068
:102DB000E9F73197AF014A1B5B0BBD018DEF97E03F
:102DC0000E94AA0C0E946F0E8091540290915502AD
:102DD0008436910508F026C180E8E4E5F1E0A4ED31
:102DE000B1E001900D928A95E1F710E0123009F4FC
:102DF00048C1133009F460C1113009F427C1E4ED72
:102E0000CE2EE1E0DE2EF12CE12CF60181916F0156
:102E1000813041F421E042EE56E06CE070E0C70101
:102E20000E94550EF4E0EF0EF11C00E8E016F104EC
:102E300061F71F5F1430D1F6809159028111CFC024
:102E400080915B028111CBC08091070887FD09C08A
:102E50009091060897FF05C091E090935902109257
:102E60005A0282FD64C08091060882FF60C0809192
:102E700058028150823028F583E080935802809177
:102E80008503811104C08CEE96E00E94420EE09111
:102E90008403E630A0F4EF5FE0938403AE9EF0017C
:102EA0001124E65DFE4F81E08383128280915602F9
:102EB000885F80838091570281830E949B0F0E94CC
:102EC000661080918403863011F4109284038091FF
:102ED00058028450823028F5F6E0F0935802809131
:102EE0008503811104C08CEE96E00E94420EE091B1
:102EF0008403E630A0F4EF5FE0938403AE9EF0011C
:102F00001124E65DFE4F81E0838382838091560227
:102F1000885080838091570281830E949B0F0E947A
:102F2000661080918403863011F4109284030E940D
:102F3000670E85FF1DC0109156021123C9F08091C4
:102F40005B02811115C06092580200915702602FF8
:102F5000812F0E94ED10811108C0602F88E0810F41
:102F60000E94ED10882309F4C2C01150109356023C
:102F70000E94670E86FF1EC0109156021837D0F4CB
:102F800080915B02811116C001E000935802F0901D
:102F900057026F2D812F0E94ED10811108C06F2DF7
:102FA00088E0810F0E94ED10882309F4A6C01F5FFE
:102FB000109356020E94670E82FD07C0809158024E
:102FC000833019F481E0809358020E94670E82FDDD
:102FD00006C080915802863011F4609258028091A8
:102FE000280190912901019790932901809328014C
:102FF000892B09F0BBC0E0E0F1E010E000E0838144
:1030000081111CC18091540290915502883C910518
:1030100008F078C0F12C8436910508F47AC022E0DB
:10302000F22E77C08436910509F4DFCE0E94080B9A
:1030300010920F0810920E0810920D0810920C08B2
:1030400080E8EDEBF2E0A4E5B1E0CBCE74EFC72E63
:1030500071E0D72EF12CE12CD6018D916D018130DC
:1030600041F421E042EE56E06CE170E0C7010E94BD
:10307000550EB4E0EB0EF11CE0E8EE16F10461F73A
:10308000D8CE64E1C62E62E0D62EF12CE12CD6011A
:103090008D916D01813041F421E042EE56E06CE209
:1030A00070E0C7010E94550EB4E0EB0EF11CE0E8A1
:1030B000EE16F10461F7BDCE54E3C52E52E0D52ED5
:1030C000F12CE12CD6018D916D01813041F421E08C
:1030D00042EE56E06CE370E0C7010E94550EB4E08A
:1030E000EB0EF11CE0E8EE16F10461F7A2CE81E0F0
:1030F00080935B0210925C023BCF00935B021092C4
:103100005C0258CF44E0F42E8C32914010F037E04E
:10311000F32E0E94B11A2F2D30E02F5F3F4F032E68
:10312000000C440B550B0E94111B9AE0909FF0017C
:10313000919FF00D1124E050FF4F628391E0938343
:103140009FE7908361116DC08CE081830E94B11A6A
:103150002EE630E040E050E00E94111B665A7F4F9F
:103160008F4F9F4F709329016093280190E0E92EC3
:1031700091E0F92E6701D60113968C91882309F40A
:1031800065C04091560250E0B091570220915D0217
:1031900030915E02C9010196FC011491F90154902D
:1031A000FC010491F6016081062E000C770BA181D1
:1031B00020853185C9010196FC01B490F901249163
:1031C000FC019491FA01E50DF11D6E177F07F4F5EE
:1031D000620F711D46175707CCF54B2F411B550B3E
:1031E0000A2E000CBB0BAB19B109040F152F111DD2
:1031F000A017B1075CF5A90FB11D4A175B0734F59D
:103200001092590210925A0280915802833018F09D
:103210008CE3809357027092580282E08093860379
:10322000FFCC623011F48CE190CF643011F48CE269
:103230008CCF663009F08ACF8CE387CF0F5F1F4FAA
:103240003A960430110509F0DACE80CF5AE0C50E67
:10325000D11C2C143D0409F08ECF0E941C110E9439
:103260008E100E9466100E949B0F00E011E0442423
:103270004394D80113968C911397882309F4C1C005
:1032800012963C911297383008F0A8C0E32FF0E076
:10329000EC5AF64E80910408909105082C91B401E7
:1032A0000E94741B0C94881B5C195C193F1A3F1A0E
:1032B0004B1A4B1A561A561A892B21F43111D3C0C6
:1032C000F801428290915602492F50E0622F022E5F
:1032D000000C770B641775075CF4F8018681811187
:1032E00007C08481811104C090FF02C02F5F20833A
:1032F000D8018C91282F082E000C330B421753074E
:1033000074F416962C911697211109C014962C91DD
:103310001497211104C090FF02C081508C93F801D2
:10332000B18050806B2D852D0E94ED1081112AC037
:103330006B2D88E0850D0E94ED10811123C0D8010E
:1033400014968C91149781111DC016964C92169765
:1033500017968C911797E82FF0E0EC55FD4F6081A0
:103360006B0D11966C9311978F5F17968C93893024
:1033700049F4852D0E94ED10882309F478C0F801E6
:10338000168217820E94670E85FF28C0F8016181AE
:10339000862F062E000C990B20915702281719062C
:1033A000ECF4868181111AC044828581E82FF0E017
:1033B000E556FD4F9081691BD80111966C931197CA
:1033C0008F5F15968C93893049F4852D0E94ED10FE
:1033D000882309F450C0F80114821582D801189688
:1033E000ED91FC911997E4918C91082E000C990BAA
:1033F000F0E0F195E195F1098E179F0714F413960B
:103400001C92065F1F4F0C151D0509F032CFF70106
:1034100083818823F9F0E281F0E0EE0FFF1FE3558E
:10342000FD4F40815181D70119965C934E931897B7
:10343000FA013196E49111966C911197062E000CC9
:10344000770B6E1B71098C9120E0082E000C990BF4
:103450000E94550EBAE0EB0EF11C0E151F05B9F6D1
:103460000E94EB0ADDCBD80112961C922BCFD8011B
:1034700017961C9287CFD80115961C92AFCF892B37
:1034800031F4E2E0323071F433E0F801328321505C
:10349000D8012C93A3CF892BD1F7E4E0343011F479
:1034A00035E0F3CFD8011296EC93F1CF892B29F4B4
:1034B000363039F437E0F80132832150F8012083A7
:1034C0008DCFD8011296AC92F8CF8F929F92AF9287
:1034D000BF92CF92DF92EF92FF92CF93DF93EC01F6
:1034E000688179818A819B816115710581059105CA
:1034F00021F464E279ED8BE597E02DE133EF41E0D3
:1035000050E00E94111B49015A019B01AC01A7EA3E
:10351000B1E40E94301B6B017C01ACEEB4EFA5015D
:1035200094010E943E1BC60ED71EE81EF91EF7FE30
:1035300006C081E0C81AD108E10880E8F80AC8820C
:10354000D982EA82FB82C701B6019F77DF91CF91D2
:10355000FF90EF90DF90CF90BF90AF909F908F90B3
:1035600008958F929F92AF92BF92CF92DF92EF9287
:10357000FF9260916D0270916E0280916F02909146
:103580007002611571058105910521F464E279ED00
:103590008BE597E02DE133EF41E050E00E94111BF5
:1035A00049015A019B01AC01A7EAB1E40E94301B1A
:1035B0006B017C01ACEEB4EFA50194010E943E1BAF
:1035C000C60ED71EE81EF91EF7FE06C081E0C81A17
:1035D000D108E10880E8F80AC0926D02D0926E022C
:1035E000E0926F02F0927002C701B6019F77FF90E0
:1035F000EF90DF90CF90BF90AF909F908F90089505
:1036000060936D0270936E0280936F0290937002CC
:103610000895F999FECF92BD81BDF89A992780B59A
:103620000895052E97FB1EF400940E94281B57FD59
:1036300007D00E94431B07FC03D04EF40C94281BB8
:1036400050954095309521953F4F4F4F5F4F0895CE
:1036500090958095709561957F4F8F4F9F4F0895FE
:103660000E94651BA59F900DB49F900DA49F800D97
:10367000911D11240895B7FF0C94301B0E94301B3C
:10368000821B930B0895A1E21A2EAA1BBB1BFD01FE
:103690000DC0AA1FBB1FEE1FFF1FA217B307E40731
:1036A000F50720F0A21BB30BE40BF50B661F771F89
:1036B000881F991F1A9469F7609570958095909569
:1036C0009B01AC01BD01CF010895A29FB001B39F42
:1036D000C001A39F700D811D1124911DB29F700D1B
:1036E000811D1124911D0895AA1BBB1B51E107C028
:1036F000AA1FBB1FA617B70710F0A61BB70B881F82
:10370000991F5A95A9F780959095BC01CD01089510
:10371000EE0FFF1F0590F491E02D0994F894FFCF70
:103720000000000000000000A601000000000000F2
:103730000000A6010000000000000000A60100003B
:10374000000000000000A6015A0001010000B001C5
:1037500001010000B00101010000B0010101000001
:10376000B00101010000B00101010000B001010140
:103770000000B00101010000010101000000010191
:10378000000101010000000101010100010101002F
:10379000010101010101010101010001010101011A
:1037A0000000000101010101000000000101010110
:1037B00001010101010101010000000101010101FC
:1037C00000000000000000000000000001010101F5
:1037D00001010101010101010101010101010101D9
:1037E00001010101010101010101010101010101C9
:1037F00001010101010100000001010101010101BC
:1038000000000000000000000000000000000001B7
:103810000101010101010101010100010101010199
:103820000000000000000000000000000101010194
:10383000010101010101010100000101010101017A
:103840000000000000000000000000000101010174
:103850000101010101010101010101010101010158
:103860000101010101010101010101010101010148
:10387000010101010A00003C0000000000C401BA7F
:1038800001FFFFFFFF00E100000000000001000059
:1038900000BA01E800DE00D400CA00C000B600ACE7
:1038A00000C4012E0124011A0110010601FC00F2DE
:1038B00000B00156014C014201380103030202022B
:1038C00001010101030201020201020201A6019CA1
:1038D00001920188017E0174016A01600101010009
:1038E00000000101010101010100000000000000D1
:1038F00000000000000101010101010101010101BD
:1039000001010100010101010100000000000001AE
:10391000010000000001010101010101010101019B
:10392000010001010101010101000000000000008F
:10393000000000000001010101010101010101017C
:103940000101010101010101010101010101010167
:103950000101010101010101010101010100C18019
:103960008100000000000000640BEB0C850B7A0B5B
:10397000CB0B890BA70B00000000750EAA0C980F4B
:0A398000970FA914FCFF0000EA14E1
:00000001FF
